:020000040800F2
:1000000000000120A9110008510A0008590A00083F
:10001000610A0008690A0008710A0008000000006F
:10002000000000000000000000000000790A000845
:10003000870A000800000000950A0008A30A0008CB
:10004000F9110008F9110008F9110008F911000868
:10005000F9110008F9110008F9110008F911000858
:10006000F9110008F9110008F9110008F911000848
:10007000F9110008F9110008F9110008F911000838
:10008000F9110008F9110008F9110008000000003A
:10009000000000000000000000000000F91100084E
:1000A000F9110008F9110008F9110008F911000808
:1000B000F9110008F9110008F9110008F9110008F8
:1000C000F9110008F9110008F9110008F9110008E8
:1000D000F9110008F9110008F911000800000000EA
:1000E000F9110008F9110008F911000800000000DA
:1000F000000000000000000000000000F9110008EE
:1001000000000000F9110008F9110008F9110008B9
:1001100000000000000000000000000000000000DF
:10012000F9110008F9110008F9110008F911000887
:10013000F9110008000000000000000000000000AD
:10014000000000000000000000000000F91100089D
:10015000F9110008F9110008F9110008F911000857
:10016000F9110008F911000800000000000000006B
:10017000000000000000000000000000000000007F
:1001800000000000F911000800000000000000005D
:04019000F911000859
:1001940010B5054C237833B9044B13B10448AFF3BD
:1001A40000800123237010BD0C000020000000001B
:1001B400742C000808B5034B1BB103490348AFF383
:1001C400008008BD0000000010000020742C00080E
:1001D40053B94AB9002908BF00281CBF4FF0FF31AA
:1001E4004FF0FF3000F088B9ADF1080C6DE904CE92
:1001F40000F006F8DDF804E0DDE9022304B07047FE
:100204002DE9F047089D8E4604468846002B4AD1C6
:100214008A42174662D9B2FA82F64EB1C6F1200379
:1002240001FA06F820FA03F3B74043EA0808B44099
:100234004FEA174E1FFA87FCB8FBFEF1230C0EFBA6
:10024400118843EA084301FB0CF29A4209D9FB18CE
:1002540001F1FF3080F0EA809A4240F2E7800239EF
:100264003B449A1AA3B2B2FBFEF00EFB102243EAFF
:10027400024300FB0CFC9C4509D9FB1800F1FF323A
:1002840080F0D6809C4540F2D3803B44023840EA5B
:100294000140A3EB0C0300211DB1F3400022C5E98A
:1002A4000032BDE8F0878B4205D90DB1C5E90001E4
:1002B40000210846F5E7B3FA83F1002946D17345D6
:1002C40002D3824200F20581841A6EEB03020120FC
:1002D4009046002DE5D0C5E90048E2E7002A00F089
:1002E4009080B2FA82F6002E40F0A4808A1A030CA1
:1002F4004FEA174E80B2BCB20121B2FBFEFC0EFBEA
:100304001C2243EA024304FB0CF29A4207D9FB186D
:100314000CF1FF3802D29A4200F2E080C4469B1AE4
:10032400B3FBFEF20EFB123340EA034302FB04F478
:100334009C4207D9FB1802F1FF3002D29C4200F222
:10034400CA8002461B1B42EA0C40A5E7C1F1200605
:100354008B4022FA06F71F430EFA01F420FA06F343
:100364002EFA06FE4FEA1749234300FA01F81FFA52
:1003740087FCBEFBF9F01C0C09FB10EE44EA0E44AA
:1003840000FB0CFEA64502FA01F209D93C1900F162
:10039400FF3A80F09C80A64540F2998002383C44A4
:1003A400A4EB0E041FFA83FEB4FBF9F309FB134418
:1003B4004EEA044403FB0CFCA44508D93C1903F1A0
:1003C400FF3E80F08280A4457FD9023B3C4443EA4F
:1003D4000040A4EB0C04A0FB02EC64457346E14628
:1003E40062D35FD05DB1B8EB030264EB090404FA95
:1003F40006F622FA01F31E43CC40C5E9006400214D
:100404004FE7B1FBF2FC010C41EA0E4180B240EA35
:1004140001423B4638463C46B846BE462026B1FB20
:10042400F7F1A2EB080241EA0C4166E7014618E73E
:1004340010462CE7C6F120022EFA02F3B740B14071
:1004440020FA02F24FEA174E0A43B3FBFEF8BCB29D
:100454000EFB1833110C41EA034108FB04F9B040C8
:1004640089454FEA104380B23ED9791808F1FF3C20
:1004740001D289451FD8A1EB0901B1FBFEF909FBA3
:1004840004F80EFB191192B242EA0142424529D204
:10049400BA1809F1FF31C4D24245C2D2A9F102010E
:1004A4003A44BEE7F0459DD2BEEB02036CEB070C69
:1004B4000138E14696E7A7EB09094944A8F1020C83
:1004C400B1FBFEF909FB04F8DBE773467FE750460E
:1004D40066E70846FDE63B44023A33E7ACF1020C1A
:1004E4003B441CE749469CE7A1EB0901C446B1FB28
:1004F400FEF909FB04F8C4E7704700BF80B48FB06D
:1005040000AFF860B96011461A460B46FB711346FA
:10051400BB80FB68DE221A70FB680133AD221A70BF
:10052400FB680233BE221A70FB680333EF221A7091
:10053400BB88BB82BB885B429BB21BB2FB8240F68A
:10054400C4133B834FF23C637B83FB791BB27B84F4
:10055400B7F922303B84B7F92030FB83B7F91E305A
:10056400BB83BB681BB2C3F30E031BB27B85B7F915
:100574002A303B85B7F92830FB84B7F92630BB8491
:1005840041F23423BB8542F24533FB8543F25643A3
:100594003B8644F267537B8600237B6320E07B6BBE
:1005A4005B0038333B4433F9243C9BB21B0A9AB2B8
:1005B4007B6B02335B001946FB680B44D2B21A70A2
:1005C4007B6B5B0038333B4433F9241C7B6B5B004F
:1005D4000533FA681344CAB21A707B6B01337B6328
:1005E4007B6B0F2BDBDD00BF00BF3C37BD465DF8E6
:1005F400047B7047B0B592B000AF00F0FDFD00F091
:10060400A5F800F045F900F00DF94B4B07F10C0487
:100614001D460FCD0FC495E8070003C4228007F1DF
:100624000C03184600F0EAFC444A07F10803126878
:10063400114619800233120C1A700023FB71002238
:100644004FF480713E4801F0D7F807F108010A23FE
:1006540003223C4801F097FDF91D0A230122394881
:1006640001F0D5FE01224FF48071354801F0C4F841
:10067400FB79042B01D000F073F900F0EBFC034686
:10068400002B01D000F06CF900237B6400233B6451
:100694000023FB6300237B6300F014FE38633A6B92
:1006A4003B6CD31A092BF7D93B6B3B647B6C6422FC
:1006B40002FB03F39BB2FB62FB6AB3F5004F04DB5E
:1006C400FB6A1BB2DB431BB201E0FB6A1BB27B85F6
:1006D400002387F83B3014E097F83B201346DB00F7
:1006E40013449B001A46184BD018B7F92A3097F8D0
:1006F4003B20796CFFF702FF97F83B30013387F812
:100704003B3097F83B30032BE6D990210E4800F09C
:100714001DFD034687F8293097F82930002B03D1B3
:10072400FB6B0133FB6302E097F829307B637B6C3E
:1007340001337B64B0E700BF8C2C0008A82C0008B0
:1007440000000240280000208000002080B594B002
:1007540000AF07F1200330220021184602F05CFAB2
:1007640007F10C0300221A605A609A60DA601A6179
:100774000023BB60294B1B6C284A43F0805313644D
:10078400264B1B6C03F08053BB60BB6800237B606B
:10079400234B1B6823F44043214A43F40043136072
:1007A4001F4B1B6803F440437B607B6801233B625F
:1007B4004FF480337B620223BB634FF48003FB63FB
:1007C40019233B644FF4C0737B640623BB64082382
:1007D400FB6407F12003184601F028F80346002BB8
:1007E40001D000F0BDF80F23FB6002233B6100231E
:1007F4007B614FF48053BB610023FB6107F10C0361
:100804000221184601F08AFA0346002B01D000F0B9
:10081400A7F800BF5037BD4680BD00BF0038024076
:100824000070004080B500AF174B184A1A60164B91
:100834004FF482725A60144B00229A60124B0022C9
:10084400DA60114B00221A610F4B00225A610E4BE1
:100854004FF400729A610C4B0022DA610A4B0022B9
:100864001A62094B00225A62074B00229A62064B15
:100874000A22DA62044801F0FDFB0346002B01D092
:1008840000F06EF800BF80BD280000200030014059
:1008940080B588B000AF07F10C0300221A605A60DB
:1008A4009A60DA601A610023BB602A4B1B6B294AE9
:1008B40043F080031363274B1B6B03F08003BB607F
:1008C400BB6800237B60234B1B6B224A43F001036C
:1008D4001363204B1B6B03F001037B607B680023D5
:1008E4003B601C4B1B6B1B4A43F002031363194B05
:1008F4001B6B03F002033B603B6801224FF48071E1
:10090400154800F079FF4FF48073FB6001233B61CD
:1009140000237B610223BB6107F10C0319460E48D7
:1009240000F0E6FD012220210C4800F065FF2023A1
:10093400FB6001233B6100237B610023BB6107F162
:100944000C031946054800F0D3FD00BF2037BD460F
:1009540080BD00BF00380240000002400004024095
:1009640080B400AF72B600BF00BFFDE780B483B0AF
:1009740000AF00237B60104B5B6C0F4A43F4804351
:1009840053640D4B5B6C03F480437B607B680023F2
:100994003B60094B1B6C084A43F080531364064BBD
:1009A4001B6C03F080533B603B6800BF0C37BD46B3
:1009B4005DF8047B704700BF0038024080B58AB000
:1009C40000AF786007F1140300221A605A609A603D
:1009D400DA601A617B681B68194A93422BD10023A1
:1009E4003B61184B5B6C174A43F480535364154BBB
:1009F4005B6C03F480533B613B690023FB60114B48
:100A04001B6B104A43F0010313630E4B1B6B03F083
:100A14000103FB60FB68E0237B610223BB610023CD
:100A2400FB6103233B6205237B6207F11403194630
:100A3400054800F05DFD00BF2837BD4680BD00BFFE
:100A440000300140003802400000024080B400AF92
:100A540000BFFDE780B400AF00BFFDE780B400AF86
:100A640000BFFDE780B400AF00BFFDE780B400AF76
:100A740000BFFDE780B400AF00BFBD465DF8047B56
:100A8400704780B400AF00BFBD465DF8047B70477B
:100A940080B400AF00BFBD465DF8047B704780B5ED
:100AA40000AF00F0FBFB00BF80BD000080B400AFCE
:100AB400064BD3F88830054A43F47003C2F88830F3
:100AC40000BFBD465DF8047B704700BF00ED00E049
:100AD40080B584B000AF7860224B1B689847214BE7
:100AE4009B6898471F4BDB69002B03D01D4B9B6908
:100AF400002B14D11B4B1B697A68120CD2B210461E
:100B04009847184B1B697A68120AD2B21046984764
:100B1400144B1B697A68D2B21046984711E07B687F
:100B24001B0CDBB23B737B681B0ADBB27B737B68F9
:100B3400DBB2BB730B4B9B6907F10C02032110461C
:100B44009847084B5B6998470346FB73054BDB6882
:100B54009847044B5B689847FB7B18461037BD46A3
:100B640080BD00BF1001002080B584B000AF786064
:100B74000B46FB70224B1B689847214B9B68984798
:100B84007B6843F004037B601D4B9B69002B19D1E8
:100B94001B4B1B697A68120CD2B210469847184B4B
:100BA4001B697A68120AD2B210469847144B1B6923
:100BB4007A68D2B210469847114B1B69FA781046EE
:100BC400984713E07B681B0CDBB23B737B681B0A02
:100BD400DBB27B737B68DBB2BB73FB78FB73084BC4
:100BE4009B6907F10C02042110469847044BDB680B
:100BF4009847034B5B68984700BF1037BD4680BDDC
:100C04001001002080B586B000AFF860B9601346CB
:100C1400FB802B4B1B689847294B9B689847FB68C4
:100C240043F00403FB60264B9B69002B26D1244B25
:100C34001B69FA68120CD2B210469847204B1B6904
:100C4400FA68120AD2B2104698471D4B1B69FA681B
:100C5400D2B2104698470023FB820AE0184B1B6966
:100C6400FA8AB9680A44127810469847FB8A013315
:100C7400FB82FA8AFB889A42F0D317E0FB681B0CCC
:100C8400DBB23B74FB681B0ADBB27B74FB68DBB230
:100C9400BB740B4B9B6907F1100203211046984764
:100CA400074B9B69FA881146B8689847044BDB6880
:100CB4009847034B5B68984700BF1837BD4680BD13
:100CC4001001002090B585B000AF0346FB710023EE
:100CD400FB810023BB81FB799B000133DB0003F51F
:100CE40000531846FFF7F4FE0346BB81BB891B0281
:100CF4009CB2FB799B000133DB0003F504531846D7
:100D0400FFF7E6FE03462344BB81BB89002B19D0C1
:100D1400FB799B000133DB0003F500531846FFF712
:100D2400D7FE0346FB81FB891B029CB2FB799B0027
:100D34000133DB0003F504531846FFF7C9FE0346ED
:100D44002344FB81FA89BB899A42C4D1FB891846A2
:100D54001437BD4690BD90B585B000AF03463960E9
:100D6400FB711346BB800023FB810023BB60BB885F
:100D7400002B46D0FB799B000133DB0003F51053B5
:100D84001846FFF7A5FE03461B029CB2FB799B00A5
:100D94000133DB0003F514531846FFF799FE0346AD
:100DA4002344FB81FB891A02FB799B000233DB009D
:100DB4001344BB60BB881A463968B868FFF722FF42
:100DC400FA89BB881344FB81FB799B000133DB0068
:100DD40003F510531A46FB891B0A9BB2DBB2194672
:100DE4001046FFF7C1FEFB799B000133DB0003F5DE
:100DF40014531A46FB89DBB219461046FFF7B4FEBA
:100E040000E000BF1437BD4690BD000080B500AFC0
:100E140000224FF48071024800F0EEFC00BF80BD58
:100E24000000024080B500AF01224FF480710248F7
:100E340000F0E2FC00BF80BD0000024080B582B03B
:100E440000AF0346FB71F91D0A230122034801F098
:100E54009AF900BF0837BD4680BD00BF28000020B6
:100E640080B582B000AF0023FB71F91D0A23012273
:100E7400034801F0CCFAFB7918460837BD4680BD1B
:100E84002800002080B582B000AF78600B467B80DC
:100E94007A8814237968034801F075F900BF08378C
:100EA400BD4680BD2800002080B582B000AF7860C8
:100EB4000B467B807A8814237968034801F0A7FAEB
:100EC40000BF0837BD4680BD2800002080B400AFB5
:100ED40072B600BF00BFBD465DF8047B704780B4A6
:100EE40000AF62B600BF00BFBD465DF8047B70472B
:100EF40080B500AF202200210E4801F08DFE0D4B7D
:100F04000D4A1A600B4B0D4A5A600A4B0C4A9A6000
:100F1400084B0C4ADA60074B0B4A1A61054B0B4A23
:100F24005A61044B0A4A9A61024B0A4ADA6100BFC9
:100F340080BD00BF10010020D10E0008E30E0008A0
:100F4400110E0008290E0008410E0008650E000865
:100F5400890E0008AD0E000880B500AF00222021E4
:100F64000B4800F049FC012000F0B8F901222021CF
:100F7400074800F041FC372000F0B0F98021002040
:100F8400FFF7F2FD052000F0A9F900BF80BD00BF06
:100F94000004024080B500AF062214494FF41060EB
:100FA400FFF730FE042212494FF48070FFF72AFE47
:100FB400042210494FF4A060FFF724FE04220E49D6
:100FC4004FF47060FFF71EFE07214FF4C850FFF77F
:100FD400CBFDD0214FF4D050FFF7C6FD08214FF4CC
:100FE400D850FFF7C1FD00BF80BD00BF3001002015
:100FF4003E0100203A01002036010020B0B582B045
:1010040000AF78607B68002B1AD00F4A7B681446C7
:101014001D4628686968AA68EB680FC4286969696D
:1010240003C42B8B2380094B00221A60084B002237
:101034001A70FFF75DFFFFF78FFFFFF7ABFF00E0CC
:1010440000BF0837BD46B0BD300100204C01002070
:101054005001002080B584B000AF10214FF484709B
:10106400FFF782FD052000F039F9102141F60870E0
:10107400FFF77AFD002141F60860FFF775FD0221B4
:101084000820FFF771FD2E4A3B1D92E8030018600B
:10109400043319803B1D062219464FF4C160FFF743
:1010A400B1FD0422274940F60840FFF7ABFD264B6B
:1010B400DB8A1B0A9BB2DBB2194641F20800FFF738
:1010C40053FD214BDB8ADBB2194641F20810FFF7CE
:1010D4004BFD1D4B1B8B1B0A9BB2DBB219464FF415
:1010E4008160FFF741FD184B1B8BDBB219464FF4AF
:1010F400A160FFF739FD01214FF48470FFF734FD3F
:1011040000F0E0F803460A33FB604FF44270FFF747
:10111400DFFC0346FB72FB7A222B06D000F0D2F8E8
:101124000246FB689342F0D800E000BFFB7A222B12
:1011340001D0032300E0002318461037BD4680BDCC
:10114400AC2C0008420100203001002080B582B0A0
:1011540000AF78600B467B807B68002B02D07B88D5
:10116400902B01D0042317E00020FFF7ABFD0346CA
:101174008F2B06D80A4B1B680133094A13600223DC
:101184000AE0902279680020FFF7E5FD20214FF462
:101194008470FFF7E9FC002318460837BD4680BD7C
:1011A4004C010020DFF834D0FFF780FC0C480D49D7
:1011B4000D4A002302E0D458C4500433C4188C42AE
:1011C400F9D30A4A0A4C002301E013600432A24214
:1011D400FBD301F029FDFFF70DFA70470000012051
:1011E400000000200C000020D42C00080C0000207B
:1011F40058010020FEE7000080B500AF0E4B1B68CD
:101204000D4A43F4007313600B4B1B680A4A43F402
:1012140080631360084B1B68074A43F480731360B0
:10122400032000F031F90F2000F008F8FFF79EFBCF
:101234000023184680BD00BF003C024080B582B048
:1012440000AF7860124B1A68124B1B7819464FF4A2
:101254007A73B3FBF1F3B2FBF3F3184600F03BF9F6
:101264000346002B01D001230EE07B680F2B0AD824
:10127400002279684FF0FF3000F011F9064A7B68CC
:101284001360002300E0012318460837BD4680BDE3
:1012940000000020080000200400002080B400AFFB
:1012A400064B1B781A46064B1B681344044A13600A
:1012B40000BFBD465DF8047B704700BF08000020F6
:1012C4005401002080B400AF034B1B681846BD4690
:1012D4005DF8047B704700BF5401002080B584B0E2
:1012E40000AF7860FFF7EEFFB8607B68FB60FB68D7
:1012F400B3F1FF3F05D00A4B1B781A46FB68134431
:10130400FB6000BFFFF7DEFF0246BB68D31AFA6832
:101314009A42F7D800BF00BF1037BD4680BD00BF5A
:101324000800002080B485B000AF78607B6803F0CB
:101334000703FB600C4BDB68BB60BA684FF6FF0326
:101344001340BB60FB681A02BB68134343F0BF63DE
:1013540043F40033BB60044ABB68D36000BF143756
:10136400BD465DF8047B704700ED00E080B400AF3B
:10137400044BDB681B0A03F007031846BD465DF8FF
:10138400047B704700ED00E080B483B000AF0346F7
:101394003960FB7197F90730002B0ADB3B68DAB23E
:1013A4000C4997F907301201D2B20B4483F8002399
:1013B4000AE03B68DAB20849FB7903F00F03043B07
:1013C4001201D2B20B441A7600BF0C37BD465DF849
:1013D400047B704700E100E000ED00E080B489B0D8
:1013E40000AFF860B9607A60FB6803F00703FB6143
:1013F400FB69C3F10703042B28BF0423BB61FB690A
:101404000433062B02D9FB69033B00E000237B6114
:101414004FF0FF32BB6902FA03F3DA43BB681A40A8
:101424007B699A404FF0FF317B6901FA03F3D9439A
:101434007B680B40134318462437BD465DF8047B94
:101444007047000080B582B000AF78607B68013BD4
:10145400B3F1807F01D301230FE00A4A7B68013B8B
:1014640053600F214FF0FF30FFF78EFF054B002232
:101474009A60044B07221A60002318460837BD46B9
:1014840080BD00BF10E000E080B582B000AF78609E
:101494007868FFF747FF00BF0837BD4680BD80B5B9
:1014A40086B000AF0346B9607A60FB7300237B61AA
:1014B400FFF75CFF78617A68B9687869FFF78EFF97
:1014C400024697F90F3011461846FFF75DFF00BF3B
:1014D4001837BD4680BD80B582B000AF78607868AB
:1014E400FFF7B0FF034618460837BD4680BD00002D
:1014F40080B489B000AF7860396000237B61002339
:101504003B610023BB610023FB6159E10122FB69BC
:1015140002FA03F37B613B681B687A6913403B6101
:101524003A697B699A4240F048813B685B6803F002
:101534000303012B05D03B685B6803F00303022B14
:1015440030D17B689B68BB61FB695B00032202FAB4
:1015540003F3DB43BA691340BB613B68DA68FB6998
:101564005B0002FA03F3BA691343BB617B68BA698F
:101574009A607B685B68BB610122FB6902FA03F332
:10158400DB43BA691340BB613B685B681B0903F02A
:101594000102FB6902FA03F3BA691343BB617B6876
:1015A400BA695A603B685B6803F00303032B17D0E6
:1015B4007B68DB68BB61FB695B00032202FA03F30F
:1015C400DB43BA691340BB613B689A68FB695B0003
:1015D40002FA03F3BA691343BB617B68BA69DA6040
:1015E4003B685B6803F00303022B23D1FB69DA0831
:1015F4007B68083253F82230BB61FB6903F00703B0
:101604009B000F2202FA03F3DB43BA691340BB6168
:101614003B681A69FB6903F007039B0002FA03F3B2
:10162400BA691343BB61FB69DA087B680832B9699C
:1016340043F822107B681B68BB61FB695B000322D3
:1016440002FA03F3DB43BA691340BB613B685B688E
:1016540003F00302FB695B0002FA03F3BA69134364
:10166400BB617B68BA691A603B685B6803F440330A
:10167400002B00F0A2800023FB60574B5B6C564AA2
:1016840043F480435364544B5B6C03F48043FB602A
:10169400FB68524AFB699B08023352F82330BB6152
:1016A400FB6903F003039B000F2202FA03F3DB43FD
:1016B400BA691340BB617B68494A934219D07B687D
:1016C400484A934213D07B68474A93420DD07B68C3
:1016D400464A934207D07B68454A934201D104238A
:1016E40008E0072306E0032304E0022302E00123C9
:1016F40000E00023FA6902F0030292009340BA6901
:101704001343BB613549FB699B080233BA6941F84D
:101714002320384B9B68BB613B69DB43BA691340A8
:10172400BB613B685B6803F48013002B03D0BA6988
:101734003B691343BB612F4ABB6993602D4BDB6844
:10174400BB613B69DB43BA691340BB613B685B68BF
:1017540003F40013002B03D0BA693B691343BB6144
:10176400244ABB69D360234B5B68BB613B69DB43A1
:10177400BA691340BB613B685B6803F40033002B18
:1017840003D0BA693B691343BB611A4ABB6953600E
:10179400184B1B68BB613B69DB43BA691340BB61EF
:1017A4003B685B6803F48033002B03D0BA693B6960
:1017B4001343BB610F4ABB691360FB690133FB61CF
:1017C400FB690F2B7FF6A2AE00BF00BF2437BD46D6
:1017D4005DF8047B704700BF0038024000380140C8
:1017E400000002400004024000080240000C0240D5
:1017F40000100240003C014080B483B000AF786028
:101804000B467B8013467B707B78002B03D07A8851
:101814007B689A6103E07B881A047B689A6100BF45
:101824000C37BD465DF8047B7047000080B586B078
:1018340000AF78607B68002B01D1012367E27B68ED
:101844001B6803F00103002B75D0884B9B6803F0E1
:101854000C03042B0CD0854B9B6803F00C03082B62
:1018640012D1824B5B6803F48003B3F5800F0BD174
:101874007E4B1B6803F40033002B5BD07B685B68F2
:10188400002B57D1012342E27B685B68B3F5803FAC
:1018940006D1764B1B68754A43F4803313601DE010
:1018A4007B685B68B3F5A02F0CD1704B1B686F4A43
:1018B40043F4802313606D4B1B686C4A43F48033FC
:1018C40013600BE0694B1B68684A23F48033136090
:1018D400664B1B68654A23F4802313607B685B684E
:1018E400002B13D0FFF7EEFC386108E0FFF7EAFCA9
:1018F40002463B69D31A642B01D9032307E25B4BED
:101904001B6803F40033002BF0D014E0FFF7DAFC7B
:10191400386108E0FFF7D6FC02463B69D31A642B12
:1019240001D90323F3E1514B1B6803F40033002B6B
:10193400F0D100E000BF7B681B6803F00203002BBA
:1019440063D04A4B9B6803F00C03002B0BD0474B2E
:101954009B6803F00C03082B1CD1444B5B6803F415
:101964008003002B16D1414B1B6803F00203002BAC
:1019740005D07B68DB68012B01D00123C7E13B4B19
:101984001B6823F0F8027B681B69DB0037491343AB
:101994000B603AE07B68DB68002B20D0344B0122DB
:1019A4001A60FFF78FFC386108E0FFF78BFC0246F2
:1019B4003B69D31A022B01D90323A8E12B4B1B68E3
:1019C40003F00203002BF0D0284B1B6823F0F8022D
:1019D4007B681B69DB00254913430B6015E0244B2E
:1019E40000221A60FFF76EFC386108E0FFF76AFC1A
:1019F40002463B69D31A022B01D9032387E11B4B0F
:101A04001B6803F00203002BF0D17B681B6803F012
:101A14000803002B36D07B685B69002B16D0154B6E
:101A240001221A60FFF74EFC386108E0FFF74AFC18
:101A340002463B69D31A022B01D9032367E10B4BFE
:101A44005B6F03F00203002BF0D01BE0094B002274
:101A54001A60FFF737FC38610EE0FFF733FC0246EB
:101A64003B69D31A022B07D9032350E10038024003
:101A740000004742800E4742884B5B6F03F002032D
:101A8400002BEAD17B681B6803F00403002B00F0F1
:101A940097800023FB75814B1B6C03F08053002B54
:101AA4000FD10023BB607D4B1B6C7C4A43F08053F9
:101AB40013647A4B1B6C03F08053BB60BB68012337
:101AC400FB75774B1B6803F48073002B18D1744BA0
:101AD4001B68734A43F480731360FFF7F3FB3861A8
:101AE40008E0FFF7EFFB02463B69D31A022B01D94A
:101AF40003230CE16A4B1B6803F48073002BF0D0C2
:101B04007B689B68012B06D1644B1B6F634A43F0CF
:101B1400010313671CE07B689B68052B0CD15F4BAA
:101B24001B6F5E4A43F0040313675C4B1B6F5B4AF5
:101B340043F0010313670BE0584B1B6F574A23F024
:101B440001031367554B1B6F544A23F004031367B7
:101B54007B689B68002B15D0FFF7B4FB38610AE063
:101B6400FFF7B0FB02463B69D31A41F28832934235
:101B740001D90323CBE0494B1B6F03F00203002B75
:101B8400EED014E0FFF79EFB38610AE0FFF79AFB02
:101B940002463B69D31A41F28832934201D90323A6
:101BA400B5E03E4B1B6F03F00203002BEED1FB7D2F
:101BB400012B05D1394B1B6C384A23F08053136435
:101BC4007B689B69002B00F0A180344B9B6803F079
:101BD4000C03082B5CD07B689B69022B41D1314BF1
:101BE40000221A60FFF76EFB386108E0FFF76AFB1A
:101BF40002463B69D31A022B01D9032387E0274B02
:101C04001B6803F00073002BF0D17B68DA697B68F2
:101C14001B6A1A437B685B6A9B011A437B689B6A55
:101C24005B08013B1B041A437B68DB6A1B061B49E8
:101C340013434B601B4B01221A60FFF743FB3861CF
:101C440008E0FFF73FFB02463B69D31A022B01D998
:101C540003235CE0114B1B6803F00073002BF0D0EE
:101C640054E0104B00221A60FFF72CFB386108E0A7
:101C7400FFF728FB02463B69D31A022B01D9032341
:101C840045E0064B1B6803F00073002BF0D13DE0E8
:101C94007B689B69012B07D1012338E0003802409F
:101CA40000700040600047421B4B5B68FB607B6830
:101CB4009B69012B28D0FB6803F480027B68DB69F5
:101CC4009A4221D1FB6803F03F027B681B6A9A4267
:101CD4001AD1FA6847F6C07313407A68526A9201BF
:101CE400934211D1FB6803F440327B689B6A5B0822
:101CF400013B1B049A4207D1FB6803F070627B68C6
:101D0400DB6A1B069A4201D0012300E00023184637
:101D14001837BD4680BD00BF0038024080B584B08E
:101D240000AF786039607B68002B01D10123CCE0DF
:101D3400684B1B6803F007033A689A420CD9654B59
:101D44003A68D2B21A70634B1B6803F007033A680F
:101D54009A4201D00123B8E07B681B6803F00203B8
:101D6400002B20D07B681B6803F00403002B05D0F4
:101D7400594B9B68584A43F4E05393607B681B6853
:101D840003F00803002B05D0534B9B68524A43F4DD
:101D940060439360504B9B6823F0F0027B689B6820
:101DA4004D4913438B607B681B6803F00103002BD0
:101DB40044D07B685B68012B07D1474B1B6803F455
:101DC4000033002B19D101237FE07B685B68022B71
:101DD40003D07B685B68032B07D13F4B1B6803F080
:101DE4000073002B09D101236FE03B4B1B6803F008
:101DF4000203002B01D1012367E0374B9B6823F0DA
:101E040003027B685B68344913438B60FFF75AFA1B
:101E1400F8600AE0FFF756FA0246FB68D31A41F26B
:101E24008832934201D903234FE02B4B9B6803F084
:101E34000C027B685B689B009A42EBD1254B1B68C4
:101E440003F007033A689A420CD2224B3A68D2B2A2
:101E54001A70204B1B6803F007033A689A4201D0BA
:101E6400012332E07B681B6803F00403002B08D0D5
:101E7400194B9B6823F4E0527B68DB6816491343D3
:101E84008B607B681B6803F00803002B09D0124B9E
:101E94009B6823F460427B681B69DB000E49134393
:101EA4008B6000F021F802460B4B9B681B0903F082
:101EB4000F030A49CB5C22FA03F3094A1360094B66
:101EC4001B681846FFF7BAF9002318461037BD46B9
:101ED40080BD00BF003C024000380240B42C000822
:101EE40000000020040000202DE9B04F90B000AFA6
:101EF40000237B630023FB6300233B630023BB635A
:101F0400594B9B6803F00C03082B0DD0082B00F2EF
:101F1400A180002B02D0042B03D09BE0534BBB6366
:101F24009BE0534BBB6398E04F4B5B6803F03F036C
:101F34007B634D4B5B6803F48003002B28D04A4B32
:101F44005B689B0900223B627A623B6AC3F3080028
:101F54000021474B03FB01F2002300FB03F313446E
:101F6400434AA0FB0212FA620A46BA62FA6A1344AE
:101F7400FB627B6B0022BB61FA61D7E90623D7E9D8
:101F84000A01FEF725F902460B461346FB6353E0AC
:101F9400354B5B689B0900223B617A613B69C3F363
:101FA400080A4FF0000B52465B464FF000004FF01A
:101FB4000001590141EAD261500102460B46B2EBDD
:101FC4000A0863EB0B094FF000024FF000034FEADD
:101FD400891343EA98634FEA8812B2EB080463EB6F
:101FE40009054FF000024FF00003EB0043EA54737D
:101FF400E20014461D4614EB0A033B6045EB0B0359
:102004007B604FF000024FF00003D7E900452946FA
:102014008B02214643EA915321468A02104619460F
:102024007B6B0022BB60FA60D7E90223FEF7D0F88D
:1020340002460B461346FB630B4B5B681B0C03F019
:10204400030301335B003B63FA6B3B6BB2FBF3F3BB
:10205400BB6302E0054BBB6300BFBB6B1846403754
:10206400BD46BDE8B08F00BF003802400024F40034
:1020740040787D0180B582B000AF78607B68002B2A
:1020840001D101237BE07B685B6A002B08D17B686C
:102094005B68B3F5827F09D07B680022DA6105E0D2
:1020A4007B6800221A617B6800225A617B680022E7
:1020B4009A627B6893F85130DBB2002B06D17B68BF
:1020C400002283F850207868FEF778FC7B680222AF
:1020D40083F851207B681B681A687B681B6822F0B0
:1020E40040021A607B685B6803F482727B689B68B9
:1020F40003F404431A437B68DB6803F400631A4364
:102104007B681B6903F002031A437B685B6903F075
:1021140001031A437B689B6903F400731A437B68C9
:10212400DB6903F038031A437B681B6A03F08003FE
:1021340042EA03017B689B6A03F400527B681B68D4
:102144000A431A607B689B691B0C03F004017B68DB
:102154005B6A03F010027B681B680A435A607B6861
:102164001B68DA697B681B6822F40062DA617B68A9
:1021740000225A657B68012283F851200023184607
:102184000837BD4680BD80B588B000AFF860B9603F
:102194003B601346FB80FFF795F8F861FB887B836F
:1021A400FB6893F85130DBB2012B01D002232AE102
:1021B400BB68002B02D0FB88002B01D1012322E154
:1021C400FB6893F85030012B01D102231BE1FB681B
:1021D400012283F85020FB68032283F85120FB6816
:1021E40000225A65FB68BA681A63FB68FA889A8603
:1021F400FB68FA88DA86FB6800229A63FB6800228F
:102204009A87FB680022DA87FB6800225A64FB681D
:1022140000221A64FB689B68B3F5004F0FD1FB687A
:102224001B681A68FB681B6822F040021A60FB688E
:102234001B681A68FB681B6842F480421A60FB68DA
:102244001B681B6803F04003402B07D0FB681B6826
:102254001A68FB681B6842F040021A60FB68DB687E
:10226400B3F5006F52D1FB685B68002B02D07B8B07
:10227400012B45D1FB681B6B1A88FB681B68DA606D
:10228400FB681B6B9A1CFB681A63FB68DB8E9BB2B2
:10229400013B9AB2FB68DA8632E0FB681B689B68F4
:1022A40003F00203022B12D1FB681B6B1A88FB6834
:1022B4001B68DA60FB681B6B9A1CFB681A63FB687B
:1022C400DB8E9BB2013B9AB2FB68DA8618E0FEF71C
:1022D400F9FF0246FB69D31A3A689A4203D83B686D
:1022E400B3F1FF3F02D13B68002B09D1FB68012207
:1022F40083F85120FB68002283F85020032382E0F6
:10230400FB68DB8E9BB2002BC7D153E0FB685B6894
:10231400002B02D07B8B012B47D1FB681A6BFB6827
:102324001B680C3312781A70FB681B6B5A1CFB6811
:102334001A63FB68DB8E9BB2013B9AB2FB68DA86B8
:1023440033E0FB681B689B6803F00203022B13D184
:10235400FB681A6BFB681B680C3312781A70FB68F5
:102364001B6B5A1CFB681A63FB68DB8E9BB2013B38
:102374009AB2FB68DA8618E0FEF7A4FF0246FB690E
:10238400D31A3A689A4203D83B68B3F1FF3F02D1AB
:102394003B68002B09D1FB68012283F85120FB68BC
:1023A400002283F8502003232DE0FB68DB8E9BB2D0
:1023B400002BC6D1FA693968F86800F0D9FB0346E6
:1023C400002B02D0FB6820225A65FB689B68002B17
:1023D4000AD100237B61FB681B68DB687B61FB68B7
:1023E4001B689B687B617B69FB68012283F8512031
:1023F400FB68002283F85020FB685B6D002B01D042
:10240400012300E0002318462037BD4680BD80B577
:1024140088B002AFF860B9603B601346FB80FB688C
:1024240093F85130DBB2012B01D0022304E1BB68E5
:10243400002B02D0FB88002B01D10123FCE0FB68B8
:102444005B68B3F5827F12D1FB689B68002B0ED1C9
:10245400FB68042283F85120FA883B6800931346F2
:10246400BA68B968F86800F0EBF80346E4E0FEF7F0
:1024740029FF7861FB6893F85030012B01D10223C6
:10248400DAE0FB68012283F85020FB68042283F819
:102494005120FB6800225A65FB68BA689A63FB689E
:1024A400FA889A87FB68FA88DA87FB6800221A633D
:1024B400FB6800229A86FB680022DA86FB68002209
:1024C4001A64FB6800225A64FB689B68B3F5004FEA
:1024D4000FD1FB681B681A68FB681B6822F0400276
:1024E4001A60FB681B681A68FB681B6822F4804248
:1024F4001A60FB681B681B6803F04003402B07D07D
:10250400FB681B681A68FB681B6842F040021A608B
:10251400FB68DB68002B70D135E0FB681B689B68A7
:1025240003F00103012B15D1FB681B6803F10C02B6
:10253400FB689B6B1278D2B21A70FB689B6B5A1CB7
:10254400FB689A63FB68DB8F9BB2013B9AB2FB6822
:10255400DA8718E0FEF7B6FE02467B69D31A3A68BA
:102564009A4203D83B68B3F1FF3F02D13B68002B8A
:1025740009D1FB68012283F85120FB68002283F80B
:102584005020032358E0FB68DB8F9BB2002BC4D19F
:1025940038E0FB681B689B6803F00103012B13D12F
:1025A400FB681B68DA68FB689B6B92B21A80FB6855
:1025B4009B6B9A1CFB689A63FB68DB8F9BB2013BA5
:1025C4009AB2FB68DA8718E0FEF77CFE02467B6964
:1025D400D31A3A689A4203D83B68B3F1FF3F02D159
:1025E4003B68002B09D1FB68012283F85120FB686A
:1025F400002283F8502003231EE0FB68DB8F9BB28C
:10260400002BC6D17A693968F86800F04BFA0346A2
:10261400002B02D0FB6820225A65FB68012283F854
:102624005120FB68002283F85020FB685B6D002B6F
:1026340001D0012300E0002318461837BD4680BDB1
:1026440080B58AB000AFF860B9607A607B800123FE
:102654007B62FEF737FE3862FB6893F85130FB77F4
:10266400FB685B68BB617B88FB82FB7F012B0CD022
:10267400BB69B3F5827F06D1FB689B68002B02D14E
:10268400FB7F042B01D002237FE1BB68002B05D024
:102694007B68002B02D07B88002B01D1012374E1DD
:1026A400FB6893F85030012B01D102236DE1FB68E4
:1026B400012283F85020FB6893F85130DBB2042BDD
:1026C40003D0FB68052283F85120FB6800225A6579
:1026D400FB687A689A63FB687A88DA87FB687A8889
:1026E4009A87FB68BA681A63FB687A88DA86FB689B
:1026F4007A889A86FB6800221A64FB6800225A646E
:10270400FB681B681B6803F04003402B07D0FB6881
:102714001B681A68FB681B6842F040021A60FB6879
:10272400DB68B3F5006F7ED1FB685B68002B02D0D9
:10273400FB8A012B6CD1FB681B6B1A88FB681B6836
:10274400DA60FB681B6B9A1CFB681A63FB68DB8E00
:102754009BB2013B9AB2FB68DA8659E0FB681B68BE
:102764009B6803F00203022B1BD1FB68DB8E9BB238
:10277400002B16D07B6A012B13D1FB681B6B1A88C4
:10278400FB681B68DA60FB681B6B9A1CFB681A63A6
:10279400FB68DB8E9BB2013B9AB2FB68DA860023AE
:1027A4007B62FB681B689B6803F00103012B19D152
:1027B400FB68DB8F9BB2002B14D0FB681B68DA68C4
:1027C400FB689B6B92B21A80FB689B6B9A1CFB683C
:1027D4009A63FB68DB8F9BB2013B9AB2FB68DA8792
:1027E40001237B62FEF76EFD02463B6AD31A3A6B05
:1027F4009A420DD83B6BB3F1FF3F09D0FB6801222D
:1028040083F85120FB68002283F850200323BCE0A6
:10281400FB68DB8E9BB2002BA0D1FB68DB8F9BB2E5
:10282400002B9BD182E0FB685B68002B02D0FB8A03
:10283400012B71D1FB681A6BFB681B680C3312788F
:102844001A70FB681B6B5A1CFB681A63FB68DB8EEF
:102854009BB2013B9AB2FB68DA865DE0FB681B68B9
:102864009B6803F00203022B1CD1FB68DB8E9BB236
:10287400002B17D07B6A012B14D1FB681A6BFB6801
:102884001B680C3312781A70FB681B6B5A1CFB68AC
:102894001A63FB68DB8E9BB2013B9AB2FB68DA8653
:1028A40000237B62FB681B689B6803F00103012B18
:1028B40019D1FB68DB8F9BB2002B14D0FB681B681B
:1028C400DA68FB689B6BD2B21A70FB689B6B5A1C6C
:1028D400FB689A63FB68DB8F9BB2013B9AB2FB688F
:1028E400DA8701237B62FEF7EDFC02463B6AD31ACA
:1028F4003A6B9A4203D83B6BB3F1FF3F02D13B6B77
:10290400002B09D1FB68012283F85120FB680022C7
:1029140083F85020032338E0FB68DB8E9BB2002B46
:102924009CD1FB68DB8F9BB2002B97D13A6A396B41
:10293400F86800F01DF90346002B08D0FB6820223C
:102944005A65FB68002283F8502001231DE0FB68D0
:102954009B68002B0AD100233B61FB681B68DB6882
:102964003B61FB681B689B683B613B69FB68012218
:1029740083F85120FB68002283F85020FB685B6DCC
:10298400002B01D0012300E0002318462837BD4660
:1029940080BD000080B588B000AFF860B9603B60CE
:1029A4001346FB71FEF78EFC0246BB6A9B1A3A681B
:1029B4001344FB61FEF786FCB861394B1B685B016D
:1029C4001B0DFA6902FB03F37B6155E03B68B3F12D
:1029D400FF3F51D0FEF776FC0246BB69D31AFA6971
:1029E4009A4202D9FB69002B3DD1FB681B685A68E7
:1029F400FB681B6822F0E0025A60FB685B68B3F571
:102A0400827F11D1FB689B68B3F5004F04D0FB684B
:102A14009B68B3F5806F07D1FB681B681A68FB6875
:102A24001B6822F040021A60FB689B6AB3F5005FE2
:102A34000FD1FB681B681A68FB681B6822F40052FC
:102A44001A60FB681B681A68FB681B6842F4005232
:102A54001A60FB68012283F85120FB68002283F886
:102A64005020032318E07B69002B02D10023FB6173
:102A740002E07B69013B7B61FB681B689A68BB6869
:102A84001340BA689A420CBF01230023DBB21A46F2
:102A9400FB799A429AD1002318462037BD4680BD5F
:102AA4000000002080B586B002AFF860B9607A609B
:102AB400FB685B68B3F5827F11D1FB689B68B3F553
:102AC400004F04D0FB689B68B3F5806F07D1FB68A7
:102AD4001B681A68FB681B6822F040021A60FB68D6
:102AE4005B68B3F5827F2AD1FB689B68B3F5806F7E
:102AF40012D07B680093BB6800228021F868FFF73E
:102B040049FF0346002B2DD0FB685B6D43F0200288
:102B1400FB685A65032326E07B680093BB680022A8
:102B24000121F868FFF736FF0346002B1AD0FB6833
:102B34005B6D43F02002FB685A65032313E07B6856
:102B44000093BB6800220121F868FFF723FF0346C6
:102B5400002B07D0FB685B6D43F02002FB685A65CD
:102B6400032300E0002318461037BD4680BD000053
:102B740080B588B002AFF860B9607A607B68009372
:102B8400BB6801220221F868FFF704FF0346002B0B
:102B940007D0FB685B6D43F02002FB685A65032392
:102BA40032E01B4B1B681B4AA2FB03235B0D4FF453
:102BB4007A7202FB03F37B61FB685B68B3F5827F87
:102BC40012D17B680093BB6800228021F868FFF76C
:102BD400E1FE0346002B16D0FB685B6D43F0200238
:102BE400FB685A6503230FE07B69002B0AD07B69DD
:102BF400013B7B61FB681B689B6803F08003802BAF
:102C0400F2D000E000BF002318461837BD4680BD4F
:102C140000000020819F5E1602440346934200D1C7
:102C2400704703F8011BF9E770B50D4D0D4C641B9B
:102C3400A4100026A64209D10B4D0C4C00F018F844
:102C4400641BA4100026A64205D170BD55F8043BB0
:102C540098470136EEE755F8043B98470136F2E70A
:102C6400CC2C0008CC2C0008CC2C0008D02C00085C
:102C7400F8B500BFF8BC08BC9E467047F8B500BF65
:082C8400F8BC08BC9E46704735
:102C8C000008DC112233C0A80114FFFFFF00C0A80C
:102C9C000101C0A801648A138913000000390000E7
:102CAC00FFFFFFFFFFFF000000000000000000001E
:082CBC000102030406070809E8
:082CC40040D5FF7F0100000074
:042CCC00B901000842
:042CD0009501000862
:0C2CD4000024F4001000000001000000CB
:04000005080011A935
:00000001FF
